S00E000050726F6A20352E7372656326
S11300000C943B000C9460030C948F030C945800E4
S11300100C9458000C944F030C9458000C94A003B7
S11300200C9458000C9458000C9458000C945800EC
S11300300C9458000C94BE010C9458000C94580075
S11300400C9458000C9458000C94F5020C9458002D
S11300500C94CE020C9458000C9458000C94580044
S11300600C9458000C945800E801F50102020F02A8
S11300701C022902360211241FBECFEFD8E0DEBFD6
S1130080CDBF11E0A0E0B1E0ECE2FBE002C00590DE
S11300900D92A830B107D9F725E0A8E0B1E001C07E
S11300A01D92A933B207E1F70E942B040C94940526
S11300B00C94000084EA8093BC00ECEBF0E08081B7
S11300C08823ECF7089584E98093BC000895809315
S11300D0BB0084E88093BC00ECEBF0E080818823D3
S11300E0ECF7089520E4829FC00111248468809372
S11300F0BC00ECEBF0E080818823ECF78091BB003E
S113010008952FB7F89490910A01911107C090EEC9
S113011090930A018093090181E001C080E02FBF20
S113012008952FB7F89490910A01911107C090EFA8
S113013090930A018093080181E001C080E02FBF01
S11301400895613049F0623051F0633059F0643001
S113015061F420ED30E00BC020E830E008C020EC72
S113016030E005C020E930E002C020E030E090EE4D
S113017090930A0190E00197820F931F80930901E5
S1130180089580910A0180FD83C08034E9F158F418
S11301908031C9F018F48823A1F008958032F1F079
S11301A0803339F10895883E09F448C018F4803E3C
S11301B0B1F10895803F09F44FC0883F09F45BC052
S11301C0089515B8089515B883E285B995B180E20C
S11301D0892785B981E280930A01089515B883E2DD
S11301E085B995B180E2892785B981E380930A01B5
S11301F0089515B883E285B995B180E2892785B958
S113020081E480930A01089515B882E285B995B115
S113021080E2892785B981E080930A01089515B8A1
S11302208091090182958F70805E85B995B180E2D5
S1130230892785B989EE80930A01089515B88091BC
S113024009018F70805E85B995B180E2892785B9EF
S113025081E080930A01089515B880910801829580
S11302608F70805D85B995B180E2892785B989EF62
S113027080930A01089515B8809108018F70805DFC
S113028085B995B180E2892785B981E080930A0117
S1130290089580E180930A010E94C10080910A01BF
S11302A08111FACF80EE80930A0188E280930901DC
S11302B00E94C10080910A018111FACF80EE8093DF
S11302C00A018CE0809309010E94C10080910A0117
S11302D08111FACF80EE80930A0186E080930901B0
S11302E00E94C10080910A018111FACF80EE8093AF
S11302F00A0181E0809309010E94C10080910A01F2
S11303008111FACF08958FEF84B915B887B918B859
S113031082EE8AB98CE18BB98AE08093690083E02C
S11303208DBB84E08093680080E180936D0010921F
S11303306C0010926B0010928000E1E8F0E01082F3
S113034080818560808387EF92EC90938500809311
S11303508400EFE6F0E080818160808382E0809316
S1130360B00096E09093B1001092B2009DE7909394
S1130370B3001092B4008093700008951F920F92FE
S11303800FB60F9211242F933F934F935F936F9364
S11303907F938F939F93AF93BF93EF93FF93CF93E9
S11303A0DF93CDB7DEB72E97DEBFCDBF82E191E0FC
S11303B00E944705E09115018E2F90E0FC013197D2
S11303C0E730F10508F05EC0EC5CFF4F0C948E053D
S11303D0E9E1F1E084E480838FE481838DE4828326
S11303E080E283838DE284834DC0E9E1F1E083E51B
S11303F0808385E4818387E4828380E283838DE242
S1130400848340C0E9E1F1E084E5808385E481836D
S113041082E5828380E283838DE2848333C0E9E1D1
S1130420F1E081E5808385E5818381E4828380E254
S113043083838DE2848326C0E9E1F1E081E5808352
S113044085E5818389E4828380E283838DE28483EA
S113045019C0E9E1F1E083E5808385E4818388E5DF
S1130460828380E283838DE284830CC0E9E1F1E03E
S113047083E5808381E4818382E4828380E28383D1
S11304808DE2848385E5898386E48A8383E48B8390
S113049080E28C839DE29D838E83E2E1F1E08281A0
S11304A0982F92959F70905D9F838F70805D888751
S11304B02AE329878181982F92959F70905D9A876E
S11304C08F70805D8B872C878081982F92959F7089
S11304D0905D9D878F70805D8E87FE013196AAE2C4
S11304E0B5E09E01205F3F4F81918D93E217F307A2
S11304F0D9F78FE090E090930C0180930B01E9E130
S1130500F1E080E28583A2E1B1E014968C91149726
S1130510982F92959F70905D96838F70805D8783EE
S11305202FE2208715968C911597982F92959F709E
S1130530905D91878F70805D8287238782E38487B3
S113054080E3858716968C91982F92959F70905D85
S113055096878F70805D87878FEF8093040187EF84
S113056092EC90938500809384002E960FB6F894B5
S1130570DEBF0FBECDBFDF91CF91FF91EF91BF9151
S1130580AF919F918F917F916F915F914F913F9127
S11305902F910F900FBE0F901F9018951F920F92DE
S11305A00FB60F9211248F939F93EF93FF93E091D3
S11305B01001F0911101CF010196909311018093E4
S11305C010018181882319F08093C60005C0E1ECF5
S11305D0F0E080818F7B8083FF91EF919F918F91D9
S11305E00F900FBE0F901F9018951F920F920FB689
S11305F00F9211242F938F939F93EF93FF938091E6
S1130600C0008C7190E0959587959595879585B9EF
S11306108091C600803479F4E0910501F0910601DF
S113062010828AE291E090930601809305018AEF9B
S113063080930F012AC08D3079F4E0910501F09187
S1130640060110828AE291E09093060180930501ED
S11306508FEF80930F0119C0E0910501F09106011D
S113066080838091050190910601019625E08A32EC
S1130670920728F4909306018093050106C08AE24C
S113068091E09093060180930501FF91EF919F9172
S11306908F912F910F900FBE0F901F9018951F925E
S11306A00F920FB60F9211248F9380910E018460E4
S11306B080930E018F910F900FBE0F901F9018958D
S11306C01F920F920FB60F9211242F933F934F93C3
S11306D05F936F937F938F939F93AF93BF93EF93A6
S11306E0FF93E2E1F1E012821182108281E08483BF
S11306F0858316828383CF010E942205FF91EF91A7
S1130700BF91AF919F918F917F916F915F914F9125
S11307103F912F910F900FBE0F901F9018951F922D
S11307200F920FB60F9211248F9380910E01826065
S113073080930E018F910F900FBE0F901F9018950C
S11307401F920F920FB60F9211248F9380910A017A
S11307508E7F80930A018F910F900FBE0F901F9090
S11307601895809104018F3F09F074C080910D01A8
S11307708230F1F028F4882349F0813059F008954B
S11307808131C9F1823109F443C0089581E0809335
S11307900D01089581E00E948100882309F45AC064
S11307A082E080930D0161E081E00E94A100089540
S11307B0E0910001F091010180810E949100882361
S11307C009F448C0E0910001F0910101CF010196C4
S11307D09093010180930001818181113BC01092AB
S11307E00E018AE295E0909301018093000181E17A
S11307F080930D01089581E00E948100882351F1C6
S113080082E180930D0162E081E00E94A1000895DD
S1130810E0910201F091030180810E9491008823FC
S1130820C9F0E0910201F0910301CF010196909388
S1130830030180930201818181110CC010920E0189
S113084089E191E0909303018093020110920D01DC
S11308501092040108950E947A0580E00E94110517
S11308600E94830178940E94490188E50E949100C6
S11308700AE211E0C2E1D1E080910F018F3F09F05B
S1130880BDC010920F018DE00E948605F8015081D1
S1130890F0E15F9FC0011124F8013181382B4381BD
S11308A0F0E14F9FC0011124F8012481282B868197
S11308B0F0E18F9FC0011124F8019781892B88836F
S11308C081858F708B838385F0E18F9FC001112414
S11308D0F8019485892B8C838685F0E18F9FC00174
S11308E01124F8019785892B8D838389F0E18F9FEB
S11308F0C0011124F8019489892B8E83503319F493
S11309003F7C3A8308C0832F8F7D8A83523319F446
S11309103F7C30623A83403319F42F7C29830FC023
S1130920822F8F7D8983423321F42F7C2062298397
S11309300BC0433321F489818062898305C0443329
S113094019F489818F7E8983F8018681803321F4AB
S113095098819F7C988310C09881292F2F7D2883AC
S1130960823321F49F7C906298830BC0833321F4FB
S113097088818062888305C0843319F488818F7EDE
S11309808883F8018385803321F48C818F7C8C8368
S11309900FC09C81292F2F7D2C83823321F49F7CCF
S11309A090629C8305C0833319F48C8180628C83AC
S11309B0F8018685803321F48D818F7C8D8303C07B
S11309C08D818F7D8D83F8018389803321F48E811D
S11309D08F7C8E830FC09E81292F2F7D2E8382339F
S11309E021F49F7C90629E8305C0833319F48E8129
S11309F080628E83CE010E9422050EC08A3F59F484
S1130A0010920F01F80181818053880F9081890F22
S1130A10837088B901C000000E94B1030E94C10024
S1130A202BCFCF93C82F0E945A0080ED0E946700FD
S1130A3087E00E9467008C2F0E9467000E94630079
S1130A40CF910895CF93DF93EC010E945A0080ED7B
S1130A500E94670080E00E94670088810E9467000E
S1130A6089810E9467008A810E9467008B810E94AD
S1130A7067008C810E9467008D810E9467008E81CF
S1130A800E9467000E946300DF91CF910895CF9385
S1130A90DF93EC010E945A0080ED0E94670080E021
S1130AA00E9467000E9463000E945A0081ED0E9428
S1130AB0670081E00E947200888381E00E947200D6
S1130AC0898381E00E9472008A8381E00E9472001F
S1130AD08B8381E00E9472008C8381E00E9472000B
S1130AE08D8380E00E9472008E830E946300DF91F8
S1130AF0CF9108951092C50087E68093C40088EDD5
S1130B008093C1008EE08093C2000895E0ECF0E091
S1130B10908195FFFDCF8093C6000895EE0FFF1FCF
S10F0B200590F491E02D0994F894FFCFA7
S10B0B2C2A051901FF2A01004A
S9030000FC
